:100000000C94651F0C94861F0C94861F0C94861FFD
:100010000C94861F0C94861F0C94861F0C94861FCC
:100020000C9496550C943C710C94861F0C94861F6E
:100030000C94861F0C94861F0C94861F0C94861FAC
:100040000C94861F0C94F2BD0C94861F0C94861F92
:100050000C94861F0C94861F0C94861F0C94861F8C
:100060000C94861F0C9473790C94861F0C94861F35
:100070000C94861F0C94861F0C94861F0C94861F6C
:100080000C94861F0C94861F0C94861F0C94861F5C
:100090000C94861F0C94861F0C94861F0C94C485A8
:1000A0000C94861F0C94861F0C94861F0C94861F3C
:1000B0000C94861F0C94C5560C94861F0C94DB7010
:1000C0000C94861F0C94861F0C94861F0C94861F1C
:1000D0000C94861F0C94861F0C94A5C10C94861F4B
:1000E0000C94861F0000000000000000808080004B
:1000F000800000A0A00000000000147E28FC50003A
:100100004060804020C0400064A8D62A4C000060B7
:100110009040986000008080000000004080808057
:1001200080804080404040404080005020F8205077
:1001300000002020F8202000000000004040800047
:100140000000E000000000000000008000202040CF
:1001500040808000006090909060000040C040406F
:1001600040000060902040F000006090209060000F
:10017000002060A0F0200000E080E020C00000200F
:1001800040E090600000E02040404000006090604F
:1001900090600000609070204000000080000080AF
:1001A00000000040004040800020408040200000CF
:1001B00000F000F000000080402040800000C020DF
:1001C0004000400038449AAAB440300020205070CB
:1001D000880000E090E090E0000060908090600077
:1001E00000E0909090E00000E080E080E00000E01F
:1001F00080E0808000007080B0907000009090F0EF
:10020000909000008080808080000010101090602E
:10021000000090A0C0A090000080808080E00000DE
:1002200088D8A88888000088C8A8988800006090AE
:100230009090600000E090E08080000060909090DE
:10024000601000E090E0A090000060804020C000BE
:1002500000E0404040400000909090906000008896
:10026000505020200000825454282800008850203C
:100270005088000088502020200000E0204080E0CE
:1002800000C08080808080C080804040202000C0EE
:100290004040404040C00020508800000000000066
:1002A000000000F800804000000000000070909006
:1002B00070000080E09090E00000006080806000AE
:1002C00000107090907000000060A0C0600000609E
:1002D00080C0808000007090907010600080E0907E
:1002E000909000800080808080004000404040402E
:1002F00080008090E0A090000080808080800000DE
:1003000000F0A8A8A8000000E09090900000006015
:100310009090600000E09090E0808000709090707D
:1003200010100000A0C0808000000060C020C0004D
:100330000080C0808040000000909090700000001D
:10034000A0A04040000000A8A85050000000A0401D
:1003500040A0000000A0A04080800000E04080E0BD
:10036000002040408040402080808080808000804D
:1003700040402040408000649800000000000000E1
:10038000000000000000000000000000008000806D
:1003900000800080000000800000000000A000A09D
:1003A0000000000000000000000000000000001439
:1003B000007E002800FC00500000000000200070BB
:1003C00000800060001000E000200000006400A831
:1003D00000D0002C00540098000000000060009045
:1003E0000040009800900060000000000080008045
:1003F000000000000000000000000000002000409D
:1004000000800080008000800040002000800040CC
:10041000002000200020002000400080005000202C
:1004200000F8002000500000000000000000002044
:10043000002000F800200020000000000000000064
:1004400000000000000000400040008000000000AC
:10045000000000F8000000000000000000000000A4
:1004600000000000000000800000000000200020CC
:10047000004000400080008000000000006000900C
:10048000009000900090006000000000004000C05C
:10049000004000400040004000000000006000906C
:1004A00000100020004000F00000000000600090FC
:1004B000002000100090006000000000002000609C
:1004C00000A000F0002000200000000000F00080EC
:1004D00000E00010009000600000000000200040DC
:1004E00000E00090009000600000000000F00010AC
:1004F000002000400040004000000000006000902C
:10050000006000900090006000000000006000901B
:10051000009000700020004000000000000000007B
:1005200000800000000000800000000000000000CB
:10053000004000000000004000400080000000205B
:10054000004000800040002000000000000000008B
:1005500000F00000000000F000000000000000803B
:1005600000400020004000800000000000C000208B
:10057000004000400000004000000000003C00423D
:10058000009A00AA00B400400038000000200020BB
:1005900000500070008800880000000000E000901B
:1005A00000E00090009000E000000000006000907B
:1005B00000800080009000600000000000E00090DB
:1005C00000900090009000E00000000000E000803B
:1005D00000E00080008000E00000000000E00080FB
:1005E00000E00080008000800000000000600090BB
:1005F000008000B0009000600000000000900090BB
:1006000000F000900090009000000000008000804A
:1006100000800080008000800000000000100010BA
:10062000001000100090006000000000009000A08A
:1006300000C000C000A0009000000000008000800A
:1006400000800080008000E000000000008800D8EA
:1006500000A800880088008800000000009000D0FA
:1006600000D000B000B000900000000000600090DA
:1006700000900090009000600000000000E00090FA
:10068000009000E00080008000000000006000900A
:1006900000900090009000600010000000E00090CA
:1006A000009000E000A000900000000000600090BA
:1006B00000400020009000600000000000F80020D2
:1006C000002000200020002000000000009000908A
:1006D00000900090009000600000000000880088FA
:1006E000005000500020002000000000008880889A
:1006F00080550055002200220000000000880050B4
:1007000000200020005000880000000000880050F9
:1007100000200020002000200000000000F0001059
:1007200000200040008000F00000000000C00080B9
:10073000008000800080008000C0000000800080F9
:1007400000400040002000200010001000C00040C9
:10075000004000400040004000C00000004000A0F9
:100760000000000000000000000000000000000089
:10077000000000000000000000FC000000800040BD
:100780000000000000000000000000000000000069
:100790000070009000900070000000000080008059
:1007A00000E00090009000E0000000000000000069
:1007B0000060008000800060000000000010001059
:1007C0000070009000900070000000000000000029
:1007D000006000B000800060000000000060008049
:1007E00000C00080008000800000000000000000C9
:1007F0000070009000900070001000600080008089
:1008000000E00090009000900000000000800000D8
:100810000080008000800080000000000040000098
:100820000040004000400040004000800080008008
:10083000009000E000A00090000000000080008018
:1008400000800080008000800000000000000000A8
:1008500000F000A800A800A80000000000000000B0
:1008600000E00090009000900000000000000000F8
:100870000060009000900060000000000000000098
:1008800000E00090009000E0008000800000000088
:100890000070009000900070001000100000000038
:1008A00000A000C0008000800000000000000000E8
:1008B000006000C0002000C00000000000000080B8
:1008C00000C0008000800040000000000000000028
:1008D00000900090009000700000000000000000F8
:1008E00000A000A000400040000000000000000048
:1008F00000A800A800500050000000000000000008
:1009000000A00040004000A0000000000000000027
:1009100000A000A000400040008000800000000017
:1009200000F00020004000F0000000000020004027
:1009300000400080008000400040002000800080D7
:1009400000800080008000800080008000800040E7
:10095000004000200020004000400080006400981B
:100960000000000000000000000000000000000087
:100970000000000000000000000000000000000077
:100980000000000000000040004000400040004027
:1009900000000040000000000000000000A000A0D7
:1009A0000000000000000000000000000000000047
:1009B00000000050005000F000A000F000A000A0D7
:1009C0000000000000000000007000A800A00070FF
:1009D000002800A800700020000000000000002493
:1009E0000058002800080014001A0014000000003D
:1009F00000000000003000480048007000940088AB
:100A00000074000000000000000000800080000072
:100A100000000000000000000000000000000000D6
:100A200000200040008000800080008000800040A6
:100A30000020000000000080004000200020002076
:100A400000200020004000800000000000E0004086
:100A500000A00000000000000000000000000000F6
:100A60000000000000000020002000F8002000200E
:100A70000000000000000000000000000000000076
:100A800000000000004000400000000000000000E6
:100A900000000000000000C0000000000000000096
:100AA0000000000000000000000000000000000046
:100AB0000040000000000000000000200020004076
:100AC00000400040008000800000000000000000A6
:100AD00000600090009000900090009000E0000006
:100AE0000000000000000020006000200020002026
:100AF00000200020000000000000000000600090C6
:100B0000001000200020004000F000000000000065
:100B100000000060009000100020001000900060B5
:100B200000000000000000000010003000500090A5
:100B300000F800100010000000000000000000702D
:100B4000004000E0009000100090006000000000F5
:100B5000000000000060009000E000900090009015
:100B60000060000000000000000000F00010002005
:100B70000020004000400040000000000000000095
:100B80000060009000900060009000900060000005
:100B900000000000000000600090009000900070D5
:100BA0000090006000000000000000000000000055
:100BB00000400000000000000040000000000000B5
:100BC00000000000000000400000000000000040A5
:100BD0000040000000000000000000100020004065
:100BE00000200010000000000000000000000000D5
:100BF000000000F0000000F0000000000000000015
:100C00000000000000000040002000100020004014
:100C100000000000000000000000007000880008D4
:100C20000030002000000020000000000000000054
:100C3000001E0021004A805680548055005E00212D
:100C4000801E000000000010002800280044007CE6
:100C50000044008200000000000000000070004816
:100C600000480078004800480070000000000000C4
:100C700000000038004400400040004000440038BC
:100C80000000000000000000007800440044004420
:100C90000044004400780000000000000000007CD8
:100CA00000400040007C00400040007C000000004C
:100CB000000000000078004000400070004000404C
:100CC0000040000000000000000000380044004028
:100CD000004C004400440038000000000000000008
:100CE000004400440044007C0044004400440000F0
:100CF00000000000000000400040004000400040B4
:100D00000040004000000000000000000010001043
:100D1000001000100010009000E000000000000033
:100D200000000044004800500060005000480044AB
:100D300000000000000000000040004000400040B3
:100D40000040004000780000000000000000008229
:100D500000C600C600AA00AA00AA00920000000077
:100D6000000000000044006400640054004C004C8B
:100D7000004400000000000000000038004400446F
:100D8000004400440044003800000000000000005F
:100D90000078004800480078004000400040000013
:100DA00000000000000000380044004400440044FB
:100DB0000048003C000000000000000000780044F3
:100DC0000044007800480044004400000000000097
:100DD00000000030004800400030000800480030AB
:100DE000000000000000000000F8002000200020AB
:100DF000002000200020000000000000000000444F
:100E00000044004400440044004400380000000056
:100E100000000000008200820044004400280028F6
:100E20000010000000000000000000888094805541
:100E30000055005500550022000000000000000091
:100E40000088005000500020006000500088000022
:100E500000000000000000440028002800100010DE
:100E600000100010000000000000000000FC00085E
:100E7000001000200040008000FC00000000000086
:100E80000000006000400040004000400040004082
:100E90000040006000000000008000800040004032
:100EA000004000200020000000000000000000C002
:100EB000004000400040004000400040004000C0B2
:100EC00000000000004000A000A0000000000000A2
:100ED0000000000000000000000000000000000012
:100EE0000000000000000000000000F8000000000A
:100EF0000080004000000000000000000000000032
:100F00000000000000000000000000F00010007071
:100F1000009000F000000000000000000080008051
:100F200000E000900090009000E000000000000051
:100F30000000000000000060009000800090006051
:100F40000000000000000000001000100070009081
:100F50000090009000700000000000000000000001
:100F600000000060009000F00080007000000000B1
:100F7000000000000020004000E000400040004071
:100F800000400000000000000000000000000070B1
:100F90000090009000900070009000600000000041
:100FA0000080008000E00090009000900090000021
:100FB0000000000000000080000000800080008031
:100FC00000800080000000000000000000800000A1
:100FD0000080008000800080008000800000000011
:100FE000000000800080009000A000E000A00090C1
:100FF00000000000000000000080008000800080F1
:101000000080008000800000000000000000000060
:10101000000000FC0092009200920092000000008C
:10102000000000000000000000E000900090009030
:1010300000900000000000000000000000000060C0
:101040000090009000900060000000000000000090
:101050000000000000E000900090009000E00080A0
:101060000080000000000000000000700090009070
:101070000090007000100010000000000000000050
:1010800000E0008000800080008000000000000080
:10109000000000000000007000800060001000E010
:1010A00000000000000000000000008000C0008080
:1010B0000080008000C00000000000000000000070
:1010C0000000009000900090009000700000000070
:1010D0000000000000000000008800500050005098
:1010E000002000000000000000000000000000A838
:1010F00000A800A800A800500000000000000000A8
:1011000000000000009000600040006000900000BF
:1011100000000000000000000000008800500050A7
:1011200000500020002000400000000000000000EF
:1011300000E000200040008000E00000000000000F
:10114000000000600040004000400080004000407F
:1011500000400060000000000040004000400040EF
:10116000004000400040004000000000000000C0BF
:10117000004000400040002000400040004000C00F
:101180000000000000000000000000D000B00000DF
:10119000000000000000000000000000007C00448F
:1011A000004400440044007C0000000000000000F7
:1011B0000000007C0044004400440044007C000027
:1011C0000000000000000000007C004400440044D7
:1011D0000044007C00000000000000000000007CD3
:1011E0000044004400440044007C00000000000073
:1011F00000000000007C0044004400440044007CE7
:1012000000000000000000000000007C00440044DA
:1012100000440044007C00000000000000000000CA
:10122000007C0044004400440044007C00000000B6
:10123000000000000000007C004400440044004422
:10124000007C00000000000000000000007C004462
:10125000004400440044007C000000000000000046
:101260000000007C0044004400440044007C000076
:101270000000000000000000007C00440044004426
:101280000044007C00000000000000000000007C22
:101290000044004400440044007C000000000000C2
:1012A00000000000007C0044004400440044007C36
:1012B00000000000000000000000007C004400442A
:1012C00000440044007C000000000000000000001A
:1012D000007C0044004400440044007C0000000006
:1012E000000000000000007C004400440044004472
:1012F000007C00000000000000000000007C0044B2
:10130000004400440044007C000000000000000095
:101310000000007C0044004400440044007C0000C5
:101320000000000000000000007C00440044004475
:101330000044007C00000000000000000000007C71
:101340000044004400440044007C00000000000011
:1013500000000000007C0044004400440044007C85
:1013600000000000000000000000007C0044004479
:1013700000440044007C0000000000000000000069
:10138000007C0044004400440044007C0000000055
:10139000000000000000007C0044004400440044C1
:1013A000007C00000000000000000000007C004401
:1013B000004400440044007C0000000000000000E5
:1013C0000000007C0044004400440044007C000015
:1013D0000000000000000000007C004400440044C5
:1013E0000044007C00000000000000000000007CC1
:1013F0000044004400440044007C00000000000061
:1014000000000000007C0044004400440044007CD4
:1014100000000000000000000000007C00440044C8
:1014200000440044007C00000000000000000000B8
:10143000007C0044004400440044007C00000000A4
:10144000000000000000007C004400440044004410
:10145000007C00000000000000000000007C004450
:10146000004400440044007C000000000000000034
:10147000000000000000000000000000000000006C
:1014800000000000000000000000004000000040DC
:10149000004000400040004000000000002000200C
:1014A000006000B000C000D00060004000400000BC
:1014B000000000300048004000E00040004000F81C
:1014C000000000000000000000000000007800485C
:1014D00000480078000000000000000000000088C4
:1014E0000050005000F8002000F80020000000002C
:1014F00000000000004000400040000000000040EC
:101500000040004000000000000000E000900040AB
:1015100000A000900050002000900070000000002B
:1015200000A000000000000000000000000000001B
:10153000000000000000007C0082009A00A2009AD7
:101540000082007C000000000000000000E000605D
:1015500000E00000000000000000000000000000AB
:10156000000000000000000000280050005000288B
:1015700000000000000000000000000000F000106B
:10158000001000000000000000000000000000004B
:1015900000000000000000C000000000000000008B
:1015A00000000000007C008200B200BA00AA0082A5
:1015B000007C00000000000000F8000000000000B7
:1015C000000000000000000000000000000000001B
:1015D00000700050007000000000000000000000DB
:1015E00000000000000000000020002000F80020A3
:1015F000002000F8000000000000000000E00040B3
:1016000000E00000000000000000000000000000FA
:10161000000000E0004000E00000000000000000CA
:10162000000000000000000000200040000000005A
:1016300000000000000000000000000000000000AA
:101640000000009000900090009000F0008000806A
:1016500000000000007800D000D000D00050005002
:1016600000500050000000000000000000000000DA
:10167000004000000000000000000000000000002A
:10168000000000000000000000000000000000401A
:10169000004000000000002000600020000000006A
:1016A00000000000000000000000000000E000A0BA
:1016B00000E000000000000000000000000000004A
:1016C000000000000000000000A00050005000A03A
:1016D0000000000000000000002200640028000854
:1016E000001200260042000000000000000000225E
:1016F00000640028000800170022004700000000D6
:101700000000000000E2004400E80008001200268B
:101710000022000000000000000000000000001097
:1017200000000010003000400048003000100008A9
:101730000010002800280044007C004400820000C3
:101740000000000800100010002800280044007C61
:101750000044008200000000001000280010002853
:1017600000280044007C00440082000000000028A3
:1017700000500010002800280044007C0044008233
:10178000000000000000002800100028002800448D
:10179000007C00440082000000000038002800386F
:1017A000002800280044007C004400820000000063
:1017B00000000000001F80280028004F807800886B
:1017C000008F80000000000000000038004400404E
:1017D00000400040004400380008000800100008E5
:1017E000007C00400040007C00400040007C000085
:1017F000000000080010007C00400040007C004019
:101800000040007C0000000000100028007C004028
:101810000040007C00400040007C00000000000010
:101820000028007C00400040007C00400040007C1C
:101830000000000000400020004000400040004048
:1018400000400040004000000000004000800040D8
:101850000040004000400040004000400000000008
:101860000080004000400040004000400040004038
:10187000004000000000000000A0004000400040C8
:101880000040004000400040000000000000000058
:1018900000780044004400F4004400440078000054
:1018A0000000002800500044006400640054004C14
:1018B000004C004400000000001000080038004404
:1018C00000440044004400440038000000000008C8
:1018D0000010003800440044004400440044003834
:1018E00000000000001000280038004400440044BC
:1018F0000044004400380000000000280050003878
:10190000004400440044004400440038000000004B
:101910000000002800380044004400440044004413
:101920000038000000000000000000000088007087
:10193000002000700088000000000000000000008F
:10194000003C0048004C0054006400240078000073
:101950000000002000100044004400440044004403
:101960000044003800000000001000200044004443
:10197000004400440044004400380000000000100F
:10198000002800440044004400440044004400385F
:10199000000000000000002800440044004400440F
:1019A000004400440038000000000008001000441B
:1019B0000028002800100010001000100000000097
:1019C000000000000040007800440044004400781B
:1019D0000040000000000000000000200050005007
:1019E0000060005800680050000000000000004047
:1019F0000020000000F000100070009000F00000D7
:101A00000000000000200040000000F00010007006
:101A1000009000F0000000000000002000500000D6
:101A200000F000100070009000F0000000000000C6
:101A3000005000A0000000F000100070009000F0C6
:101A400000000000000000000050000000F0001046
:101A50000070009000F00000000000700050007066
:101A6000000000F000100070009000F00000000086
:101A7000000000000000000000EC0012007E00905A
:101A800000EE000000000000000000000000006008
:101A900000900080009000600020002000000040C6
:101AA000002000000060009000F000800070000046
:101AB000000000000020004000000060009000F0E6
:101AC00000800070000000000000002000500000B6
:101AD0000060009000F00080007000000000000036
:101AE000000000A000000060009000F00080007086
:101AF0000000000000000080004000000080008026
:101B000000800080008000000000000000800000D5
:101B10000000008000800080008000800000000045
:101B20000000004000A000000080008000800080D5
:101B30000080000000000000000000400000008065
:101B40000080008000800080000000000000000095
:101B50000060002000700090009000900060000085
:101B600000000000005000A0000000E00090009085
:101B700000900090000000000000004000200000E5
:101B800000600090009000900060000000000000E5
:101B90000020004000000060009000900090006075
:101BA00000000000000000200050000000600090D5
:101BB000009000900060000000000000005000A0B5
:101BC00000000060009000900090006000000000A5
:101BD0000000000000A00000006000900090009055
:101BE0000060000000000000000000000000002075
:101BF000000000F8000000200000000000000000CD
:101C000000000000007000B000D000D000E0000034
:101C100000000000004000200000009000900090B4
:101C20000090007000000000000000200040000054
:101C300000900090009000900070000000000000F4
:101C4000004000A000000090009000900090007004
:101C50000000000000000000005000000090009014
:101C600000900090007000000000000000000000E4
:101C70000000000000000000183C3C3C1818001850
:101C8000180000006666660000000000000000000A
:101C900036367F3636367F36360000083E6B68684B
:101CA0003E0B0B6B3E080870D8DA760C18306E5B72
:101CB0001B0E0000386C6C386CC7C66E3B00000011
:101CC0001818180000000000000000000C18183060
:101CD0003030303018180C003018180C0C0C0C0C6C
:101CE000181830000000361C7F1C36000000000071
:101CF000000018187E181800000000000000000006
:101D00000000001818300000000000007E000000F5
:101D10000000000000000000000000181800000093
:101D200006060C0C18183030606000001C36636B1F
:101D30006B6B63361C0000000C1C3C0C0C0C0C0C78
:101D40003F0000003C6606060C1830607E00000074
:101D50003C6666061C0666663C000000060E1E36E3
:101D600066667F06060000007E6060607C06066690
:101D70003C0000001C3060607C6666663C00000031
:101D80007E060C0C18181818180000003C666666D1
:101D90003C6666663C0000003C6666663E06060CD5
:101DA000380000000000181800000018180000009B
:101DB000000018180000001818300000060C183039
:101DC0006030180C060000000000007E007E00005D
:101DD000000000006030180C060C18306000000095
:101DE0003C66660C18180018180000007EC3C3CFAC
:101DF000DBDBCFC07F000000183C6666667E66664F
:101E0000660000007C6666667C6666667C00000094
:101E10003C666060606060663C000000786C6666EE
:101E20006666666C780000007E6060607C60606062
:101E30007E0000007E6060607C606060600000008A
:101E40003C666060606E66663E00000066666666C0
:101E50007E666666660000003C1818181818181888
:101E60003C00000006060606060666663C0000000A
:101E700066666C6C786C6C66660000006060606022
:101E8000606060607E00000063777F6B6B636363FC
:101E9000630000006363737B6F676363630000002C
:101EA0003C666666666666663C0000007C66666642
:101EB0007C606060600000003C6666666666666620
:101EC0003C0C06007C6666667C6C666666000000FC
:101ED0003C666030180C06663C0000007E1818183E
:101EE000181818181800000066666666666666664A
:101EF0003C000000666666666666663C1800000088
:101F0000636363636B6B6B3E360000006666663C22
:101F1000183C666666000000666666663C1818181F
:101F2000180000007E06060C183060607E00003C41
:101F3000303030303030303030303C006060303065
:101F400018180C0C0606003C0C0C0C0C0C0C0C0CA1
:101F50000C0C3C183C660000000000000000000073
:101F600000000000000000000000FF3030180000FA
:101F7000000000000000000000003C06063E66660F
:101F80003E00000060607C66666666667C0000005D
:101F900000003C66606060663C00000006063E662D
:101FA000666666663E00000000003C66667E606015
:101FB0003C0000001C303030783030303000000001
:101FC00000003E66666666663E063C0060607C66B3
:101FD00066666666660000181800781818181818E3
:101FE0007E00000C0C003C0C0C0C0C0C0C0C780053
:101FF000606066666C786C66660000007818181879
:10200000181818187E00000000007E6B6B6B6B6B5D
:102010006300000000007C6666666666660000007D
:1020200000003C66666666663C00000000007C6658
:10203000666666667C60600000003E666666666690
:102040003E06060000007C66606060606000000084
:1020500000003E60603C06067C00000030307830B6
:10206000303030301C000000000066666666666630
:102070003E000000000066666666663C18000000D0
:1020800000006363636B6B3E360000000000666611
:102090003C183C6666000000000066666666666680
:1020A0003E067C0000007E060C1830607E00000CAE
:1020B0001818181830181818180C001818181818AC
:1020C0000018181818180030181818180C181818B4
:1020D0001830000076DC0000000000000000000066
:1020E00000000000000000000000000000000000F0
:1020F0000000000000000018003C003C003C003CD8
:102100000018001800000018001800000000006609
:1021100000660066002400000000000000000000CF
:1021200000000000000000000066006600FF00667E
:102130000066006600FF0066006600660000000C96
:10214000003E006B00690068003E000B000B004B76
:10215000006B003E000C0070005100730006000C84
:1021600000180030006700C5008700000000003C38
:1021700000660066003C007800CD00C700C600C6BF
:10218000007B00000000001800180018003000005C
:102190000000000000000000000000000000000C33
:1021A00000180030003000300030003000300018DF
:1021B000000C000000000018000C000600060006DD
:1021C000000600060006000C0018000000000000D9
:1021D000000000000066003C00FF003C00660000BC
:1021E00000000000000000000000000000180018BF
:1021F00000FF0018001800000000000000000000B0
:1022000000000000000000000000000000000018B6
:10221000001800180030000000000000000000005E
:1022200000FF0000000000000000000000000000AF
:102230000000000000000000000000000000001886
:10224000001800000000000000000001000300066C
:10225000000C00180030006000C000000000003CCE
:10226000006600C300C300DB00DB00C300C30066E0
:10227000003C00000000001800380078001800182A
:102280000018001800180018007E00000000007CF4
:1022900000C60006000C00180030006000C000C638
:1022A00000FE00000000007C00C600060006001CC6
:1022B00000060006000600C6007C00000000000CBE
:1022C000001C003C006C00CC00CC00FE000C000C9C
:1022D000001E0000000000FE00C000C000C000FCA6
:1022E00000060006000600C6007C00000000003C5E
:1022F000006000C000C000FC00C600C600C600C6EA
:10230000007C0000000000FE00C60006000C001863
:102310000030003000300030003000000000007C51
:1023200000C600C600C6007C00C600C600C600C6C7
:10233000007C00000000007C00C600C600C6007ED5
:10234000000600060006000C0078000000000000F7
:10235000000000180018000000000000001800181D
:10236000000000000000000000000000001800183D
:1023700000000000000000180018003000000000FD
:102380000006000C00180030006000300018000C3F
:1023900000060000000000000000000000FE000039
:1023A000000000FE0000000000000000000000002F
:1023B00000300018000C000600030006000C001896
:1023C000003000000000007C00C600060006000C83
:1023D0000018001800000018001800000000007C21
:1023E00000C600C600C600CE00DE00DC00C000C093
:1023F000007C0000000000100038006C00C600C621
:1024000000FE00C600C600C600C60000000000FCBA
:10241000006600660066007C006600660066006676
:1024200000FC00000000003C006600C200C000C0CC
:1024300000C000C000C20066003C0000000000F8C0
:10244000006C006600660066006600660066006C50
:1024500000F80000000000FE0066006000680078E0
:10246000006800600060006600FE0000000000FEE2
:10247000006600600068007800680060006000602E
:1024800000F000000000003C006600C200C000C078
:1024900000CE00C600C60066003A0000000000C67C
:1024A00000C600C600C600FE00C600C600C600C6C4
:1024B00000C600000000007E001800180018001878
:1024C0000018001800180018007E00000000001E10
:1024D000000C000C000C000C000C000C00CC00CC1C
:1024E00000780000000000E60066006C00780070D4
:1024F0000078006C0066006600E60000000000F056
:1025000000600060006000600060006000600066C5
:1025100000FE0000000000C300C300E700FF00DB76
:1025200000DB00C300C300C300C30000000000C6FE
:1025300000C600E600F600DE00CE00C600C600C6FB
:1025400000C600000000007C00C600C600C600C631
:1025500000C600C600C600C6007C0000000000FCEB
:102560000066006600660066007C00600060006037
:1025700000F000000000007C00C600C600C600C6D7
:1025800000C600C600C600D6007C000C000600FC99
:10259000006600660066007C006C006600660066EF
:1025A00000E600000000007C00C600C000600038AB
:1025B000000C0006000600C6007C0000000000FFC2
:1025C00000DB001800180018001800180018001888
:1025D000003C0000000000C600C600C600C600C6E1
:1025E00000C600C600C600C6007C0000000000C394
:1025F00000C300C300C300C300C300C30066003CA7
:1026000000180000000000C300C300C300C300C3E3
:1026100000DB00DB00FF006600660000000000C376
:1026200000C30066003C00180018003C006600C3B0
:1026300000C30000000000C300C300C30066003CEC
:102640000018001800180018003C0000000000FFEF
:1026500000C30006000C00180030006000C000C37A
:1026600000FF00000000003C00300030003000306F
:102670000030003000300030003C0000000000005E
:10268000008000C000E000700038001C000E000652
:10269000000200000000003C000C000C000C000CCC
:1026A000000C000C000C000C003C000000000008B6
:1026B000001C003600630000000000000000000065
:1026C000000000000000000000000000000000000A
:1026D0000000000000000000000000FF00000018E3
:1026E0000018000C000000000000000000000000C6
:1026F0000000000000000000000000000078000C56
:10270000007C00CC00CC00CC00760000000000E093
:10271000006000600078006C00660066006600667D
:1027200000DC00000000000000000000007C00C68B
:1027300000C000C000C000C6007C00000000001CFB
:10274000000C000C003C006C00CC00CC00CC00CC99
:10275000007600000000000000000000007C00C6C1
:1027600000C600FE00C000C6007C00000000001C87
:10277000003600300030007C003000300030003087
:10278000007800000000000000000000007600CC8F
:1027900000CC00CC00CC007C000C00CC007800E029
:1027A00000600060006C00760066006600660066EF
:1027B00000E60000000000180018000000380018B3
:1027C0000018001800180018003C00000000000667
:1027D00000060000000E00060006000600060006C7
:1027E00000060066003C00E0006000600066006CCF
:1027F00000780078006C006600E6000000000038F9
:102800000018001800180018001800180018001808
:10281000003C0000000000000000000000E600FF97
:1028200000DB00DB00DB00DB00C300000000000079
:102830000000000000DC00660066006600660066BE
:10284000006600000000000000000000007C00C6E0
:1028500000C600C600C600C6007C000000000000E4
:102860000000000000DC006600660066006600668E
:10287000007C006000F0000000000000007600CC4A
:1028800000CC00CC00CC00CC007C000C001E000072
:102890000000000000DC0076006000600060006066
:1028A00000F000000000000000000000007C00C6F6
:1028B00000C0007C000600C6007C00000000001084
:1028C0000030003000FC00300030003000300036B6
:1028D000001C0000000000000000000000CC00CC44
:1028E00000CC00CC00CC00CC007600000000000042
:1028F0000000000000C300C300C300C30066003C2A
:1029000000180000000000000000000000C300C329
:1029100000C300DB00DB00FF0066000000000000D9
:102920000000000000C30066003C0018003C006688
:1029300000C30000000000000000000000C600C648
:1029400000C600C600C600C6007E000600FC0000EF
:102950000000000000FE00CC00180030006000C63F
:1029600000FE00000000000E0018001800180070A3
:102970000018001800180018000E000000000018D1
:10298000001800180018001800000018001800189F
:102990000018001800000070001800180018000E41
:1029A0000018001800180018007000000000000057
:1029B000000000000000003B006E0000000000006E
:1029C0000000000000000000000000000000000007
:1029D00000000000000000000000000000000000F7
:1029E0000000000000000000006000600060006067
:1029F00000600060006000000060006000000000F7
:102A0000000000000000006C006C006C0000000082
:102A100000000000000000000000000000000000B6
:102A20000000000000240024006C00FC0048004866
:102A300000FC0090009000900000000000000000EA
:102A4000001000380054005000700078003C001C5A
:102A500000140054003800100000000000000000C6
:102A600000720052005200540074000B800A800A69
:102A70008012801380000000000000000000001C95
:102A800000360036001C0018003D006D006700672E
:102A9000003D8000000000000000000000600060B9
:102AA00000600000000000000000000000000000C6
:102AB00000000000000000000000001000300020B6
:102AC0000060006000600060006000600060002046
:102AD0000030001000000000008000C000400060D6
:102AE000006000600060006000600060004000C0A6
:102AF000008000000000002000F8002000D8000046
:102B000000000000000000000000000000000000C5
:102B10000000000000000000000000180018007E07
:102B20000018001800000000000000000000000075
:102B30000000000000000000000000000000000095
:102B40000000006000600020004000000000000065
:102B50000000000000000000000000000000007005
:102B60000000000000000000000000000000000065
:102B700000000000000000000000000000000060F5
:102B800000600000000000000000000000100010C5
:102B90000020002000200040004000400080008015
:102BA00000000000000000000000007800CC00CC15
:102BB00000CC00CC00CC00CC00CC00CC00780000D5
:102BC00000000000000000000018003800780058E5
:102BD0000018001800180018001800180000000065
:102BE000000000000000007800CC000C000C001871
:102BF00000380030006000C000FC00000000000051
:102C000000000000007800CC000C000C0030000C2C
:102C1000000C000C00CC0078000000000000000058
:102C200000000018001800380038005800580098BC
:102C300000FC001800180000000000000000000068
:102C4000007C006000C000F800CC000C000C000C00
:102C500000CC0078000000000000000000000038F8
:102C6000004C00C000C000F800CC00CC00CC00CC70
:102C700000780000000000000000000000FC000CD4
:102C80000018001800300030003000600060006064
:102C900000000000000000000000007800CC00CC24
:102CA00000CC007800CC00CC00CC00CC0078000038
:102CB0000000000000000000007800CC00CC00CC38
:102CC00000CC007C000C000C00C80070000000006C
:102CD0000000000000000000000000000060006034
:102CE0000000000000000060006000000000000024
:102CF0000000000000000000000000600060000014
:102D000000000000006000600020004000000000A3
:102D10000000000000000004001C007000C00070F3
:102D2000001C000400000000000000000000000083
:102D3000000000000000000000FE000000FE000097
:102D40000000000000000000000000000000000083
:102D5000000000400070001C0006001C00700040D5
:102D6000000000000000000000000000007C00C621
:102D700000060006000C0018003000000030003093
:102D800000000000000000000000000FC0302060C4
:102D9000104EC89FC8B9C8B188B390BFB05DC040DD
:102DA0000830300FC0000000001C001C0036003648
:102DB000003600630063007F00C180C18000000016
:102DC000000000000000007E006300630063007CE0
:102DD0000063006300630063007E000000000000E9
:102DE00000000000001F0031806000600060006093
:102DF000006000600031801F000000000000000043
:102E00000000007C006600630063006300630063F1
:102E100000630066007C000000000000000000006D
:102E2000007E006000600060007E00600060006066
:102E30000060007E00000000000000000000007E36
:102E40000060006000600060007E00600060006064
:102E5000006000000000000000000000001F0031C2
:102E60008060006000600067806180618031801F49
:102E70000000000000000000000000630063006329
:102E80000063007F00630063006300630063000071
:102E900000000000000000000060006000600060B2
:102EA00000600060006000600060006000000000E2
:102EB000000000000000000C000C000C000C000CD6
:102EC000000C000C00CC00CC0078000000000000DA
:102ED0000000000000630066006C006C007C00765F
:102EE0000066006600630063000000000000000050
:102EF0000000006000600060006000600060006032
:102F000000600060007E0000000000000000000083
:102F10000071C071C07BC07BC06AC06AC06AC06EED
:102F2000C06EC064C000000000000000000000632C
:102F300000730073007B006B006F00670067006325
:102F4000006300000000000000000000001E0033CD
:102F50000061806180618061806180618033001EDA
:102F600000000000000000000000007E006300631D
:102F700000630063007E006000600060006000008D
:102F80000000000000000000001E003300618061AE
:102F900080618061806180658033001F0000800057
:102FA000000000000000007E006300630063006317
:102FB000007E006600630063006180000000000086
:102FC00000000000003E006300600070003C001E36
:102FD000000700030063003E000000000000000046
:102FE000000000FF00180018001800180018001852
:102FF0000018001800180000000000000000000089
:1030000000630063006300630063006300630063A8
:103010000063003E0000000000000000000000C14E
:1030200080C1806300630063003600360036001CF8
:10303000001C0000000000000000000000C718C7CE
:103040001867306DB06DB06DB06DB038E038E038F5
:10305000E000000000000000000000630063003694
:10306000001C001C001C001C0036006300630000F4
:10307000000000000000000000C300C30066003C28
:10308000003C00180018001800180018000000008C
:1030900000000000000000FE0006000C00180018F0
:1030A00000300030006000C000FE000000000000A2
:1030B00000000000007000600060006000600060C0
:1030C0000060006000600060006000600070000050
:1030D00000000080008000400040004000200020F0
:1030E00000200010001000000000000000000000A0
:1030F00000E0006000600060006000600060006050
:10310000006000600060006000E00000000000005F
:10311000003000300078004800CC000000000000C3
:10312000000000000000000000000000000000009F
:10313000000000000000000000000000000000008F
:103140000000000000FE0000000000C00060000061
:10315000000000000000000000000000000000006F
:103160000000000000000000000000000000003C23
:103170000046001E003600660066003E00000000AB
:10318000000000000000006000600060006C00763D
:103190000066006600660076006C0000000000001B
:1031A00000000000000000000000003C006600601D
:1031B000006000600066003C0000000000000000AD
:1031C00000000006000600060036006E006600667D
:1031D0000066006E003600000000000000000000E5
:1031E000000000000000003C00660066007E0060F9
:1031F0000066003C000000000000000000000038F5
:103200000060006000F0006000600060006000602E
:10321000006000000000000000000000000000004E
:1032200000000036006E006600660066006E003624
:1032300000060046003C00000000006000600060E6
:10324000006C00760066006600660066006600009E
:10325000000000000000000000600060000000604E
:10326000006000600060006000600060000000001E
:1032700000000000000000600060000000600060CE
:10328000006000600060006000600060006000C0DE
:10329000000000000060006000600066006C0078C4
:1032A0000078006C006C0066000000000000000068
:1032B000000000600060006000600060006000606E
:1032C00000600060006000000000000000000000DE
:1032D000000000000000006CC077606660666066F9
:1032E00060666066600000000000000000000000F2
:1032F00000000000006C0076006600660066006654
:103300000066000000000000000000000000000057
:103310000000003C00660066006600660066003C37
:10332000000000000000000000000000000000009D
:10333000006C00760066006600660076006C006037
:103340000060006000000000000000000000003687
:10335000006E006600660066006E0036000600061D
:10336000000600000000000000000000007800607F
:10337000006000600060006000600000000000006D
:1033800000000000000000000000007800CC00E019
:103390000078001C00CC0078000000000000000055
:1033A000000000000020006000F00060006000608D
:1033B000006000600030000000000000000000001D
:1033C00000000000000000660066006600660066FF
:1033D000006E003600000000000000000000000049
:1033E0000000000000C600C6006C006C006C0038D5
:1033F0000038000000000000000000000000000095
:10340000000000C460CE606EC06AC07BC03B8039E3
:10341000800000000000000000000000000000002C
:1034200000660066003C0018003C00660066000074
:10343000000000000000000000000000000000C6C6
:1034400000C6006C006C006C00380038003800309A
:1034500000F000000000000000000000007C000CF4
:103460000018003000300060007C00000000000008
:103470000000000000380060006000600060006034
:1034800000C0006000600060006000600038000064
:10349000000000400040004000400040004000406C
:1034A00000400040004000400040000000000000DC
:1034B00000E00030003000300030003000180030F4
:1034C000003000300030003000E00000000000005C
:1034D00000000000000000000072009C00000000DE
:1034E0000000000000000000000000000000007F5D
:1034F0000041004100410041004100410041007F86
:10350000000000000000000000000000007F0041FB
:10351000004100410041004100410041007F0000A6
:1035200000000000000000000000007F004100419A
:1035300000410041004100410041007F00000000C7
:103540000000000000000000007F00410041004139
:103550000041004100410041007F000000000000E8
:10356000000000000000007F0041004100410041D8
:10357000004100410041007F000000000000000009
:1035800000000000007F0041004100410041004177
:1035900000410041007F000000000000000000002A
:1035A0000000007F00410041004100410041004116
:1035B0000041007F0000000000000000000000004B
:1035C000007F0041004100410041004100410041B5
:1035D000007F000000000000000000000000007FED
:1035E0000041004100410041004100410041007F95
:1035F000000000000000000000000000007F00410B
:10360000004100410041004100410041007F0000B5
:1036100000000000000000000000007F00410041A9
:1036200000410041004100410041007F00000000D6
:103630000000000000000000007F00410041004148
:103640000041004100410041007F000000000000F7
:10365000000000000000007F0041004100410041E7
:10366000004100410041007F000000000000000018
:1036700000000000007F0041004100410041004186
:1036800000410041007F0000000000000000000039
:103690000000007F00410041004100410041004125
:1036A0000041007F0000000000000000000000005A
:1036B000007F0041004100410041004100410041C4
:1036C000007F000000000000000000000000007FFC
:1036D0000041004100410041004100410041007FA4
:1036E000000000000000000000000000007F00411A
:1036F000004100410041004100410041007F0000C5
:1037000000000000000000000000007F00410041B8
:1037100000410041004100410041007F00000000E5
:103720000000000000000000007F00410041004157
:103730000041004100410041007F00000000000006
:10374000000000000000007F0041004100410041F6
:10375000004100410041007F000000000000000027
:1037600000000000007F0041004100410041004195
:1037700000410041007F0000000000000000000048
:103780000000007F00410041004100410041004134
:103790000041007F00000000000000000000000069
:1037A000007F0041004100410041004100410041D3
:1037B000007F000000000000000000000000007F0B
:1037C0000041004100410041004100410041007FB3
:1037D000000000000000000000000000007F004129
:1037E000004100410041004100410041007F0000D4
:1037F00000000000000000000000007F00410041C8
:1038000000410041004100410041007F00000000F4
:103810000000000000000000007F00410041004166
:103820000041004100410041007F00000000000015
:10383000000000000000007F004100410041004105
:10384000004100410041007F000000000000000036
:1038500000000000007F00410041004100410041A4
:1038600000410041007F0000000000000000000057
:103870000000007F00410041004100410041004143
:103880000041007F00000000000000000000000078
:10389000007F0041004100410041004100410041E2
:1038A000007F000000000000000000000000007F1A
:1038B0000041004100410041004100410041007FC2
:1038C00000000000000000000000000000000000F8
:1038D00000000000000000000000000000000000E8
:1038E0000000000000000000000000000000006078
:1038F0000060000000600060006000600060006028
:10390000006000000000000800080010007800DCE3
:1039100000D000D000D000E400780020004000403B
:1039200000000000003C006600600060006000FCD9
:103930000030007000FA004C0000000000000000A1
:10394000000000000000008400FE00CC0084008421
:1039500000CC00FE00840000000000000000000019
:1039600000CC00CC0078007800FC003000FC003077
:1039700000300030000000000000000000000040A7
:1039800000400040004000400000000000400040B7
:103990000040004000400000000000000038006CC3
:1039A0000060007000F800DC00CC00EC007800380B
:1039B000001800D800700000000000900000000017
:1039C00000000000000000000000000000000000F7
:1039D0000000000000000000001E0061804C80928A
:1039E000409040904092404C8061801E000000005A
:1039F000000000000000007000900070009000F0D7
:103A000000000000000000000000000000000000B6
:103A10000000000000000000000000000024006C16
:103A200000D800D8006C0024000000000000000056
:103A3000000000000000000000FE00060006000676
:103A40000000000000000000000000000000000076
:103A500000000000000000000000000000000070F6
:103A60000000000000000000000000000000001E38
:103A70000061805C80924092409C40944052806102
:103A8000801E000000000000000000FE000000009A
:103A90000000000000000000000000000000000026
:103AA0000000000000000000000000600090009096
:103AB00000600000000000000000000000000000A6
:103AC00000000000000000000000000000000030C6
:103AD000003000FC00300030000000FC000000005E
:103AE000000000000000007000900020004000F086
:103AF00000000000000000000000000000000000C6
:103B000000000000006000900020009000600000B5
:103B10000000000000000000000000000000005451
:103B20007970653A20756E6B6E6F776E0A00547906
:103B300070653A2031364D62697420446174616663
:103B40006C6173680A004D616E75666163747572AD
:103B500065723A20756E6B6E6F776E0A004D616EFE
:103B60007566616374757265723A2041746D656C37
:103B70000A005374617475733A20425553590A0010
:103B80005374617475733A2052454144590A004593
:103B9000787465726E616C20466C61736820546540
:103BA00073740A000C000C007A3A202564206D67BB
:103BB0000A00793A202564206D670A00783A2025AA
:103BC00064206D670A00416363656C65726F6D65A3
:103BD00074657220546573740A0046696E6973686F
:103BE00065642E000A546573742066696E69736893
:103BF0006564210054686520646973706C61792084
:103C00007761730A636C656172656420766961200F
:103C1000666F726D2066656564210A000C0031369E
:103C200009093137090931380909313909093230AF
:103C30000A003131090931320909313309093134B6
:103C4000090931350A0036090937090938090939DE
:103C5000090931300A0031090932090933090934E7
:103C60000909350A0054616231095461623209540C
:103C7000616233095461623409546162350A006932
:103C800009690969096909690969096909690969A4
:103C900009690A00546162626564206F7574707509
:103CA000743A0A00416E64206F76657277726974A7
:103CB00065210A000D004E6F7720646F206120435C
:103CC0005221003078253032580A00466F726D61FB
:103CD000747465643A20002E2E2E616E6420616E2D
:103CE0006F74686572206C696E65210A0041206CF2
:103CF0006F6F6F6F6F6F6F6F6F6F6F6F6F6F6F6FD4
:103D00006F6F6F6F6F6F6F6F6F6F6F6F6F6F6F6FC3
:103D10006F6F6F6F6F6F6F6F6F6F6F6F6F6F6F6FB3
:103D20006F6F6F6F6F6F6F6F6F6F6F6F6F6F6F6FA3
:103D30006F6F6F6F6F6F6F6F6F6F6F6F6F6F6F6F93
:103D40006F6F6F6F6F6F6F6F6F6F6F6F6F6F6F6F83
:103D50006F6E67206C696E650A003031323334351E
:103D6000363738390A004142434445464748494AB4
:103D70004B4C4D4E4F505152535455565758595A1B
:103D80000A006162636465666768696A6B6C6D6E80
:103D90006F707172737475767778797A0A000A6138
:103DA0006161616161616161616161616161616103
:103DB0006161616161616161610A006D6D6D6D6D6F
:103DC0006D6D6D6D6D6D6D6D6D6D6D6D6D6D6D6D23
:103DD0006D6D6D6D6D005072696E7420746F20731F
:103DE0007464657272210A0069696969696969693F
:103DF0006969696969696969696969696969696933
:103E00006969696969696969696969696969696922
:103E10006969696969696969696969696969696912
:103E2000696969696969696969690009090909094B
:103E3000090909090A0009547269534F530A0025F8
:103E4000642E204C696E650A000C004E6F7720745A
:103E5000657374696E6720646973706C617920732F
:103E600074646F75742066756E6374696F6E616CCF
:103E70006974792E2E2E004661756C7479206D65FB
:103E80006D6F72792062797465733A2025750A0026
:103E90002575206279746573206F6620686561708E
:103EA00020617661696C61626C650A0043686563D4
:103EB0006B696E672052414D3A2030782558202D8D
:103EC00020307825580A000C000011241FBECFEFC7
:103ED000D1E2DEBFCDBF00E00CBF1CE0A0E0B2E04D
:103EE000E4E7FCEC01E00BBF02C007900D92A8389C
:103EF000B107D9F71BE1A8E8BCE001C01D92A234CC
:103F0000B107E1F70E94A5230C9438E60C94000059
:103F1000DF93CF93CDB7DEB789E00E948F2D80E08D
:103F200092E00E94A0E20E94DCC7982F81E08927DE
:103F3000882309F0FFCF0E94645991E089278823E4
:103F400009F0FFCF8DE092E00E94A0E289E00E949C
:103F5000162ECF91DF910895DF93CF9300D00F926B
:103F60000F92CDB7DEB79B838A837D836C838C8170
:103F70009D810E940DE289838C819D81AC014F5F00
:103F80005F4F8981882F90E002979C018A819B81F5
:103F9000BA01A9010E9416E28981882F90E09C0154
:103FA000235030408A819B81FC01E20FF31F108275
:103FB0000F900F900F900F900F90CF91DF91089579
:103FC0000F931F93DF93CF93CDB7DEB7E2970FB672
:103FD000F894DEBF0FBECDBF1B8E1C8E1D8E1E8EB5
:103FE0008091ED02282F30E03AAB29AB89A99AA93C
:103FF0008031910509F498C129A93AA921313105E7
:104000000CF060C089A99AA98830910509F4BCC058
:1040100029A93AA92930310584F589A99AA98330BB
:10402000910509F47DC229A93AA92430310594F4F7
:1040300089A99AA98130910509F414C129A93AA93D
:10404000223031050CF01CC189A99AA9009709F406
:104050005DC168C229A93AA92530310509F4D8C043
:1040600089A99AA9853091050CF457C229A93AA9C2
:104070002630310509F491C055C289A99AA98C301E
:10408000910509F49BC029A93AA92D3031056CF49A
:1040900089A99AA98A30910509F47CC029A93AA96D
:1040A0002B3031050CF073C06CC089A99AA98E30F1
:1040B000910509F41DC129A93AA92F3031050CF049
:1040C000B5C098C089A99AA98831910509F4CBC1D6
:1040D00029A93AA9293131052CF589A99AA9843150
:1040E000910509F49CC129A93AA9253131056CF43F
:1040F00089A99AA98231910509F43FC129A93AA950
:10410000233131050CF054C121C189A99AA9863106
:10411000910509F496C129A93AA9273131050CF076
:1041200099C186C189A99AA98E31910509F4C4C0A3
:1041300029A93AA92F31310594F489A99AA98C317A
:10414000910571F129A93AA92D3131050CF0A6C0CC
:1041500089A99AA98931910509F4B2C1E3C129A9B4
:104160003AA92032310509F46FC089A99AA9803291
:10417000910594F129A93AA92132310509F4AAC07F
:10418000D1C10E941C8CCEC10E947794CBC10E94E9
:104190004892C8C10E947399C5C10E94038BC2C1D5
:1041A0000E94B586882309F4BDC181E090E0A0E0BB
:1041B000B0E08B8F9C8FAD8FBE8FB4C10E94BE9C30
:1041C000882309F4AFC181E090E0A0E0B0E08B8FDC
:1041D0009C8FAD8FBE8FA6C10E9460A5882309F475
:1041E000A1C181E090E0A0E0B0E08B8F9C8FAD8F0B
:1041F000BE8F98C10E942F77882309F493C181E074
:1042000090E0A0E0B0E08B8F9C8FAD8FBE8F8AC115
:104210000E948379882309F485C181E090E0A0E0C1
:10422000B0E08B8F9C8FAD8FBE8F7CC10E94699B4D
:10423000882309F477C181E090E0A0E0B0E08B8FA3
:104240009C8FAD8FBE8F6EC10E94CCAB882309F4CA
:1042500069C181E090E0A0E0B0E08B8F9C8FAD8FD2
:10426000BE8F60C10E94A659882309F45BC181E01A
:1042700090E0A0E0B0E08B8F9C8FAD8FBE8F52C1DD
:104280000E940B73882309F44DC181E090E0A0E007
:10429000B0E08B8F9C8FAD8FBE8F44C10E94683C75
:1042A000882309F43FC181E090E0A0E0B0E08B8F6B
:1042B0009C8FAD8FBE8F36C10E946435882309F470
:1042C00031C181E090E0A0E0B0E08B8F9C8FAD8F9A
:1042D000BE8F28C10E9496C4882309F423C181E0BF
:1042E00090E0A0E0B0E08B8F9C8FAD8FBE8F1AC1A5
:1042F0000E94DB31882309F415C181E090E0A0E041
:10430000B0E08B8F9C8FAD8FBE8F0CC10E94CD2FE4
:10431000882309F407C181E090E0A0E0B0E08B8F32
:104320009C8FAD8FBE8FFEC080E043E050E060E028
:1043300070E004E010E020E030E00E94552CDC0149
:10434000CB018B8F9C8FAD8FBE8FECC0CE014F9673
:1043500042E050E060E070E00E944B29CE014F96B1
:104360000E94E828DC01CB018B8F9C8FAD8FBE8F24
:10437000CE014F960E941D29D5C0CE01859643E0FF
:1043800050E060E070E005E010E020E030E00E94E6
:10439000322ACE0185960E949D29DC01CB018B8FAC
:1043A0009C8FAD8FBE8FCE0185960E94BE29BAC06C
:1043B0008AE090E00E945A2D8C01C80143E050E051
:1043C00060E070E00E94DE2A1A8F098F898D9A8D35
:1043D000009709F4A7C0E98DFA8D0190F081E02DD6
:1043E0000190F081E02D898D9A8D1995DC01CB012A
:1043F0008B8F9C8FAD8FBE8F898D9A8D98AB8FA739
:104400002FA538A92115310509F48CC08FA598A9CD
:104410000E94B02A8FA598A90E94492D83C081E0EF
:1044200090E0A0E0B0E08B8F9C8FAD8FBE8F7AC004
:1044300082E090E0A0E0B0E08B8F9C8FAD8FBE8FCC
:1044400071C084E090E0A0E0B0E08B8F9C8FAD8FD6
:10445000BE8F68C088E090E0A0E0B0E08B8F9C8FBA
:10446000AD8FBE8F5FC085E595E5A5E9B0E48D8B86
:104470009E8BAF8BB88F80E090E0A0E4B0E4898B96
:104480009A8BAB8BBC8B6D897E898F89988D29899E
:104490003A894B895C890E9462DADC01CB018D8705
:1044A0009E87AF87B88B6D857E858F8598890E94A2
:1044B000F6DCDC01CB018B8F9C8FAD8FBE8F32C0C1
:1044C00085E595E5A5E9B0E489879A87AB87BC8740
:1044D00080E090E0A0E4B0E48D839E83AF83B88752
:1044E00069857A858B859C852D813E814F81588594
:1044F0000E9462DADC01CB0189839A83AB83BC839F
:1045000069817A818B819C810E94F6DCDC01CB0180
:104510008B8F9C8FAD8FBE8F05C00E94E67A02C044
:104520000E944F5C8091ED028F5F8093ED0280913D
:10453000ED02823210F01092ED0289E00E94162EF8
:104540008B8D9C8DAD8DBE8D81709070A070B07084
:10455000882319F084E00E948F2D8B8D9C8DAD8D6A
:10456000BE8D82709070A070B0700097A105B105EB
:1045700019F083E00E948F2D8B8D9C8DAD8DBE8DAB
:1045800084709070A070B0700097A105B10519F00B
:1045900082E00E948F2D8B8D9C8DAD8DBE8D88709D
:1045A0009070A070B0700097A105B10509F414CD0A
:1045B00081E00E948F2D10CDDF93CF93CDB7DEB772
:1045C00060E076E980E090E00E943A7880E00E9426
:1045D000AF720E9497A781E0CF91DF910895DF939A
:1045E000CF93CDB7DEB72F970FB6F894DEBF0FBECF
:1045F000CDBF81E08F8780E090E0AAEFB3E48B87A6
:104600009C87AD87BE876B857C858D859E8520E0E8
:1046100030E04AEF54E40E9462DADC01CB018F8380
:104620009887A987BA876F81788589859A8520E0E0
:1046300030E040E85FE30E9468DC88232CF481E0EE
:1046400090E09E838D833FC06F81788589859A85B0
:1046500020E03FEF4FE757E40E9408DC18164CF5C6
:104660006B857C858D859E8520E030E040E251E4BD
:104670000E9462DADC01CB01BC01CD010E948CD822
:10468000DC01CB019E838D830FC088EC90E09C837E
:104690008B838B819C810197F1F79C838B838D8128
:1046A0009E8101979E838D838D819E81009769F7FE
:1046B00014C06F81788589859A850E948CD8DC0129
:1046C000CB019E838D838D819E819A83898389818D
:1046D0009A810197F1F79A8389830E946B2D91E06B
:1046E0008927882309F01F860E94BF5B0E94897A70
:1046F00080E00E94EA3081E00E94993291E08927AF
:10470000882309F01F860E947E720E94E2560E9452
:1047100024780E94139B0E94A0AA0E94269C91E0EC
:104720008927882309F01F860E94108378940E94AD
:104730001E9E0E9442A78F852F960FB6F894DEBF6B
:104740000FBECDBFCF91DF910895DF93CF93CDB74B
:10475000DEB76C970FB6F894DEBF0FBECDBF0E94D8
:10476000EF220E94DC2282E00E94429B0F920F9275
:10477000EDB7FEB731968DE192E0918380830E9480
:1047800064E20F900F900E946CC984E190E06CEE9F
:104790007FEF0E94E4CB80E090E4ACE9B5E4898F40
:1047A0009A8FAB8FBC8F698D7A8D8B8D9C8D20E01D
:1047B00030E04AEF54E40E9462DADC01CB018D8BD9
:1047C0009E8BAF8BB88F6D897E898F89988D20E005
:1047D00030E040E85FE30E9468DC88232CF481E04D
:1047E00090E09C8B8B8B3FC06D897E898F89988DE3
:1047F00020E03FEF4FE757E40E9408DC18164CF525
:10480000698D7A8D8B8D9C8D20E030E040E251E403
:104810000E9462DADC01CB01BC01CD010E948CD880
:10482000DC01CB019C8B8B8B0FC088EC90E09A8BCA
:10483000898B89899A890197F1F79A8B898B8B8962
:104840009C8901979C8B8B8B8B899C89009769F73E
:1048500014C06D897E898F89988D0E948CD8DC0167
:10486000CB019C8B8B8B8B899C89988B8F878F85B9
:1048700098890197F1F7988B8F878CEE9FEF64E111
:1048800070E00E94E4CB80E090E4ACE9B5E48B8773
:104890009C87AD87BE876B857C858D859E8520E056
:1048A00030E04AEF54E40E9462DADC01CB018F83EE
:1048B0009887A987BA876F81788589859A8520E04E
:1048C00030E040E85FE30E9468DC88232CF481E05C
:1048D00090E09E838D833FC06F81788589859A851E
:1048E00020E03FEF4FE757E40E9408DC18164CF534
:1048F0006B857C858D859E8520E030E040E251E42B
:104900000E9462DADC01CB01BC01CD010E948CD88F
:10491000DC01CB019E838D830FC088EC90E09C83EB
:104920008B838B819C810197F1F79C838B838D8195
:104930009E8101979E838D838D819E81009769F76B
:1049400024CF6F81788589859A850E948CD8DC0177
:10495000CB019E838D838D819E819A8389838981FA
:104960009A810197F1F79A8389830FCF0F931F9351
:10497000DF93CF93CDB7DEB7C45CD0400FB6F894C9
:10498000DEBF0FBECDBF2DB73EB7CD53DF4F39834E
:104990002883C35CD0408DB79EB7CC55DF4F998339
:1049A0008883C45AD04083E00E94429BCE014F9638
:1049B000C855DF4F99838883C85AD040A8E6B2E033
:1049C000C655DF4FB983A883CA5AD040BDE0C4554D
:1049D000DF4FB883CC5AD040C655DF4FE881F9810C
:1049E000CA5AD0400080C655DF4F28813981CA5A43
:1049F000D0402F5F3F4FC655DF4F39832883CA5AB7
:104A0000D040C855DF4FA881B981C85AD0400C9218
:104A1000C855DF4FE881F981C85AD0403196C85552
:104A2000DF4FF983E883C85AD040C455DF4FF8817F
:104A3000CC5AD040F150C455DF4FF883CC5AD04007
:104A4000C455DF4F2881CC5AD040222329F6CE010D
:104A50008C96C355DF4F99838883CD5AD040A5E704
:104A6000B2E0C155DF4FB983A883CF5AD040B4E13B
:104A7000CF54DF4FB883C15BD040C155DF4FE881D1
:104A8000F981CF5AD0400080C155DF4F288139814C
:104A9000CF5AD0402F5F3F4FC155DF4F3983288316
:104AA000CF5AD040C355DF4FA881B981CD5AD040ED
:104AB0000C92C355DF4FE881F981CD5AD040319631
:104AC000C355DF4FF983E883CD5AD040CF54DF4F31
:104AD000F881C15BD040F150CF54DF4FF883C15B08
:104AE000D040CF54DF4F2881C15BD040222329F62C
:104AF000CE0181599F4FCE54DF4F99838883C25B8B
:104B0000D04089E892E0CC54DF4F99838883C45B1E
:104B1000D04095E3CA54DF4F9883C65BD040CC5455
:104B2000DF4FA881B981C45BD0400C90CC54DF4FDB
:104B3000E881F981C45BD0403196CC54DF4FF983D2
:104B4000E883C45BD040CE54DF4FA881B981C25BFB
:104B5000D0400C92CE54DF4FE881F981C25BD04047
:104B60003196CE54DF4FF983E883C25BD040CA54FC
:104B7000DF4FF881C65BD040F150CA54DF4FF88355
:104B8000C65BD040CA54DF4F2881C65BD040222389
:104B900031F6CE0181599F4F0E940DE20397019695
:104BA000ADB7BEB7A81BB90B0FB6F894BEBF0FBE0A
:104BB000ADBFEDB7FEB73196CA55DF4FF983E88335
:104BC000C65AD040CA55DF4F88819981C65AD04015
:104BD0000096CA55DF4F99838883C65AD040CA557C
:104BE000DF4F28813981C65AD0403E8F2D8F8D8D61
:104BF0009E8D9E01215E3F4FB9010E94AC1F8D8D9D
:104C00009E8D0E94A0E28D8D9E8D9E01245D3F4F62
:104C1000B9010E94AC1F8D8D9E8D0E94A0E2CE0135
:104C2000805C9F4FC954DF4F99838883C75BD04016
:104C3000AEEBB2E0C754DF4FB983A883C95BD04065
:104C4000BBE0C554DF4FB883CB5BD040C754DF4FC8
:104C5000E881F981C95BD0400080C754DF4F2881CB
:104C60003981C95BD0402F5F3F4FC754DF4F398335
:104C70002883C95BD040C954DF4FA881B981C75B85
:104C8000D0400C92C954DF4FE881F981C75BD04016
:104C90003196C954DF4FF983E883C75BD040C554D0
:104CA000DF4FF881CB5BD040F150C554DF4FF88324
:104CB000CB5BD040C554DF4F2881CB5BD040222353
:104CC00029F6CE01855B9F4F28E0FC01DF01322FE2
:104CD0001D923A95E9F78E01005C1F4FCE01805C72
:104CE0009F4F0E940DE2800F911F20E332E0B90137
:104CF00049E050E00E94E2E18D8D9E8D9E01215998
:104D00003F4FB9010E94AC1F8D8D9E8D0E94A0E285
:104D1000CE018D5A9F4FC454DF4F99838883CC5B5B
:104D2000D040C454DF4FA881B981CC5BD040C2547D
:104D3000DF4FB983A883CE5BD040E1EDF2E0C054F1
:104D4000DF4FF983E883C05CD040F8E0CE53DF4FFB
:104D5000F883C25CD040C054DF4FA881B981C05CE9
:104D6000D0400C90C054DF4FE881F981C05CD04046
:104D70003196C054DF4FF983E883C05CD040C25401
:104D8000DF4FA881B981CE5BD0400C92C254DF4F77
:104D9000E881F981CE5BD0403196C254DF4FF98370
:104DA000E883CE5BD040CE53DF4FF881C25CD04069
:104DB000F150CE53DF4FF883C25CD040CE53DF4F6B
:104DC0002881C25CD040222331F684E1C454DF4FF5
:104DD000E881F981CC5BD0403896DF01282F1D9205
:104DE0002A95E9F78E010D5A1F4FCE018D5A9F4F1C
:104DF0000E940DE2800F911F29E332E0B9014CE0DF
:104E000050E00E94E2E18E010D5A1F4FCE018D5AF3
:104E10009F4F0E940DE2800F911F25E432E0B901FF
:104E200042E050E00E94E2E18E010D5A1F4FCE0198
:104E30008D5A9F4F0E940DE2800F911F27E432E0B0
:104E4000B90149E050E00E94E2E1CE018D5A9F4F46
:104E50000E94A0E280E090E8ABE3B5E4898F9A8FEE
:104E6000AB8FBC8F698D7A8D8B8D9C8D20E030E06F
:104E70004AEF54E40E9462DADC01CB018D8B9E8BF9
:104E8000AF8BB88F6D897E898F89988D20E030E057
:104E900040E85FE30E9468DC88232CF481E090E026
:104EA0009C8B8B8B3FC06D897E898F89988D20E08C
:104EB0003FEF4FE757E40E9408DC18164CF5698D68
:104EC0007A8D8B8D9C8D20E030E040E251E40E9491
:104ED00062DADC01CB01BC01CD010E948CD8DC017F
:104EE000CB019C8B8B8B0FC088EC90E09A8B898BCD
:104EF00089899A890197F1F79A8B898B8B899C898B
:104F000001979C8B8B8B8B899C89009769F714C0C8
:104F10006D897E898F89988D0E948CD8DC01CB01A8
:104F20009C8B8B8B8B899C89988B8F878F8598899D
:104F30000197F1F7988B8F87CE01805C9F4F0E947D
:104F4000A0E20D8D1E8DCE0181599F4F0E940DE272
:104F50009C0122503040C80160E070E0A9010E942D
:104F6000EBE10D8D1E8D0E943B9C9C0100D000D07A
:104F7000EDB7FEB731961183008380E592E093830D
:104F80008283358324830E94D5E28DB79EB706962F
:104F90000FB6F8949EBF0FBE8DBF8D8D9E8D0E9463
:104FA000A0E20D8D1E8DCE0181599F4F0E940DE212
:104FB0009C0122503040C80160E070E0A9010E94CD
:104FC000EBE10D8D1E8DC8010E940DE2800F911F37
:104FD00027E532E0B9014AE050E00E94E2E10D8DA0
:104FE0001E8DC8010E940DE2800F911F21E632E064
:104FF000B90147E050E00E94E2E18D8D9E8D0E9454
:10500000A0E280E090E8ABE3B5E48B879C87AD87B6
:10501000BE876B857C858D859E8520E030E04AEFDC
:1050200054E40E9462DADC01CB018F839887A98760
:10503000BA876F81788589859A8520E030E040E8DD
:105040005FE30E9468DC88232CF481E090E09E837B
:105050008D833FC06F81788589859A8520E03FEFF9
:105060004FE757E40E9408DC18164CF56B857C85E9
:105070008D859E8520E030E040E251E40E9462DAB6
:10508000DC01CB01BC01CD010E948CD8DC01CB013D
:105090009E838D830FC088EC90E09C838B838B81F3
:1050A0009C810197F1F79C838B838D819E81019771
:1050B0009E838D838D819E81009769F714C06F81D7
:1050C000788589859A850E948CD8DC01CB019E83E6
:1050D0008D838D819E819A83898389819A810197AD
:1050E000F1F79A8389838AE090E00E9499E280E058
:1050F0000E94429BCC55DF4FA881B981C45AD04051
:105100000FB6F894BEBF0FBEADBFCD53DF4FE881E1
:10511000F981C35CD0400FB6F894FEBF0FBEEDBF5F
:10512000CC53DF4F0FB6F894DEBF0FBECDBFCF918B
:10513000DF911F910F910895DF93CF930F920F92FC
:10514000CDB7DEB79A838983E981FA8182EF92E055
:10515000918380830F900F90CF91DF910895DF931B
:10516000CF930F920F92CDB7DEB79A838983E981EF
:10517000FA8182EF92E0918380830F900F90CF911C
:10518000DF910895DF93CF930F920F92CDB7DEB7E3
:105190009A838983E981FA8182EF92E09183808307
:1051A0000F900F90CF91DF910895DF93CF930F92DF
:1051B0000F92CDB7DEB79A838983E981FA8182EFB6
:1051C00092E0918380830F900F90CF91DF910895AB
:1051D000DF93CF930F920F92CDB7DEB79A83898377
:1051E000E981FA8182819381A481B581E981FA8183
:1051F0002281338144815581BC01CD010E94B8DFF9
:10520000DC01CB012AE331E040E050E0BC01CD01FC
:105210000E94B8DFDC01CB0124E630E040E050E042
:10522000BC01CD010E9420E0DA01C901BC01CD0121
:105230000F900F90CF91DF910895DF93CF930F924E
:105240000F92CDB7DEB79A838983E981FA8188EF1F
:1052500092E09183808389819A810E94C2280F9075
:105260000F90CF91DF910895DF93CF930F920F921C
:10527000CDB7DEB79A838983E981FA8188EF92E01E
:105280009183808389819A810E94C2280F900F9018
:10529000CF91DF910895DF93CF9300D000D0CDB7A9
:1052A000DEB79A8389834B835C836D837E83898198
:1052B0009A810E949C28E981FA8188EF92E091838B
:1052C0008083E981FA818B819C81AD81BE8182835B
:1052D0009383A483B58326960FB6F894DEBF0FBEE2
:1052E000CDBFCF91DF910895DF93CF9300D000D051
:1052F000CDB7DEB79A8389834B835C836D837E83CE
:1053000089819A810E949C28E981FA8188EF92E044
:1053100091838083E981FA818B819C81AD81BE81FB
:1053200082839383A483B58326960FB6F894DEBF59
:105330000FBECDBFCF91DF910895DF93CF930F9232
:105340000F92CDB7DEB79A838983E981FA81828192
:105350009381A481B581E981FA81268137814085D5
:105360005185BC01CD010E94B8DFDC01CB01BC013D
:10537000CD010F900F90CF91DF910895DF93CF93E0
:105380000F920F92CDB7DEB79A838983E981FA81B4
:105390008EEF92E09183808389819A810E94C22856
:1053A0000F900F90CF91DF910895DF93CF930F92DD
:1053B0000F92CDB7DEB79A838983E981FA818EEFA8
:1053C00092E09183808389819A810E94C2280F9004
:1053D0000F90CF91DF910895DF93CF930F920F92AB
:1053E000CDB7DEB79A83898389819A810E949C28F0
:1053F000E981FA818EEF92E091838083E981FA81DD
:105400001282138214821582E981FA811682178230
:10541000108611860F900F90CF91DF910895DF9342
:10542000CF930F920F92CDB7DEB79A83898389818C
:105430009A810E949C28E981FA818EEF92E0918303
:105440008083E981FA811282138214821582E981B4
:10545000FA8116821782108611860F900F90CF91D5
:10546000DF9108950F931F93DF93CF93CDB7DEB7EE
:105470002A970FB6F894DEBF0FBECDBF9A838983FB
:105480004B835C836D837E830F83188729873A87DC
:1054900089819A810E949C28E981FA818EEF92E0AD
:1054A00091838083E981FA818B819C81AD81BE816A
:1054B00082839383A483B583E981FA818F81988560
:1054C000A985BA8586839783A087B1872A960FB668
:1054D000F894DEBF0FBECDBFCF91DF911F910F912A
:1054E00008950F931F93DF93CF93CDB7DEB72A971D
:1054F0000FB6F894DEBF0FBECDBF9A8389834B836E
:105500005C836D837E830F83188729873A8789811F
:105510009A810E949C28E981FA818EEF92E0918322
:105520008083E981FA818B819C81AD81BE818283F8
:105530009383A483B583E981FA818F819885A985B6
:10554000BA8586839783A087B1872A960FB6F89489
:10555000DEBF0FBECDBFCF91DF911F910F91089598
:10556000DF93CF930F920F92CDB7DEB79A838983E3
:10557000E981FA8184E093E09183808389819A8133
:105580000E94D5290F900F90CF91DF910895DF935E
:10559000CF930F920F92CDB7DEB79A838983E981BB
:1055A000FA8184E093E09183808389819A810E94CB
:1055B000D5290F900F90CF91DF910895DF93CF936E
:1055C00000D000D0CDB7DEB79A8389834B835C834C
:1055D0006D837E8389819A810E940F2AE981FA81F5
:1055E00084E093E091838083E981FA818B819C81BF
:1055F000AD81BE8182839383A483B583E981FA81DF
:105600008B819C81AD81BE8186839783A087B18782
:1056100026960FB6F894DEBF0FBECDBFCF91DF91B7
:105620000895DF93CF9300D000D0CDB7DEB79A8333
:1056300089834B835C836D837E8389819A810E94F9
:105640000F2AE981FA8184E093E091838083E981E4
:10565000FA818B819C81AD81BE8182839383A483F7
:10566000B583E981FA818B819C81AD81BE8186837E
:105670009783A087B18726960FB6F894DEBF0FBE3A
:10568000CDBFCF91DF910895DF93CF93CDB7DEB734
:1056900028970FB6F894DEBF0FBECDBF69837A831B
:1056A0008B839C832D833E834F83588789819A8186
:1056B000AB81BC812D813E814F815885BC01CD01DC
:1056C0000E94B8DFDC01CB01BC01CD0128960FB6EA
:1056D000F894DEBF0FBECDBFCF91DF910895DF9369
:1056E000CF93CDB7DEB728970FB6F894DEBF0FBEC5
:1056F000CDBF69837A838B839C832D833E834F83C5
:10570000588729813A814B815C818D819E81AF814F
:10571000B885820F931FA41FB51FBC01CD01289629
:105720000FB6F894DEBF0FBECDBFCF91DF910895C5
:10573000EF92FF920F931F93DF93CF93CDB7DEB716
:1057400028970FB6F894DEBF0FBECDBF69837A836A
:105750008B839C832D833E834F83588729813A8195
:105760004B815C818D819E81AF81B88579018A01F1
:10577000E81AF90A0A0B1B0BD801C701BC01CD01BD
:1057800028960FB6F894DEBF0FBECDBFCF91DF9144
:105790001F910F91FF90EF900895DF93CF93CDB7B6
:1057A000DEB72C970FB6F894DEBF0FBECDBF69836E
:1057B0007A838B839C832D833E834F8358878D818F
:1057C0009E81AF81B8850097A105B10549F480E0BD
:1057D00090E0A0E0B0E889879A87AB87BC8712C0C9
:1057E00089819A81AB81BC812D813E814F81588511
:1057F000BC01CD010E9420E0DA01C90189879A87A6
:10580000AB87BC8789859A85AB85BC85BC01CD01FA
:105810002C960FB6F894DEBF0FBECDBFCF91DF91AF
:105820000895DF93CF93CDB7DEB72C970FB6F894DA
:10583000DEBF0FBECDBF69837A838B839C832D83AC
:105840003E834F8358878D819E81AF81B8850097B5
:10585000A105B10549F480E090E0A0E0B0E88987B7
:105860009A87AB87BC8712C089819A81AB81BC8142
:105870002D813E814F815885BC01CD010E9420E0E1
:10588000DC01CB0189879A87AB87BC8789859A859C
:10589000AB85BC85BC01CD012C960FB6F894DEBF5C
:1058A0000FBECDBFCF91DF9108950F931F93DF936C
:1058B000CF93CDB7DEB72F970FB6F894DEBF0FBEEC
:1058C000CDBF8D834E835F83688779870A871B8767
:1058D0002C873D878D81282F30E03F872E878E854E
:1058E0009F858230910579F12E853F8523303105E2
:1058F0005CF48E859F850097C9F12E853F85213008
:10590000310509F446C06BC08E859F8583309105B3
:1059100039F02E853F852430310509F44DC05FC034
:105920008E819F81A885B9852A853B854C855D85BB
:10593000BC01CD010E94CD2BDC01CB0189839A8370
:10594000AB83BC8354C08E819F81A885B9852A858D
:105950003B854C855D85BC01CD010E94442BDC015B
:10596000CB0189839A83AB83BC8341C08E819F81A5
:10597000A885B9852A853B854C855D85BC01CD010F
:105980000E946F2BDC01CB0189839A83AB83BC839C
:105990002EC08E819F81A885B9852A853B854C853F
:1059A0005D85BC01CD010E94982BDC01CB01898370
:1059B0009A83AB83BC831BC08E819F81A885B985E8
:1059C0002A853B854C855D85BC01CD010E94112C4B
:1059D000DC01CB0189839A83AB83BC8308C080E060
:1059E00090E0A0E0B0E889839A83AB83BC8389818F
:1059F0009A81AB81BC81BC01CD012F960FB6F89482
:105A0000DEBF0FBECDBFCF91DF911F910F910895E3
:105A1000DF93CF9300D00F92CDB7DEB79A838983FF
:105A2000E981FA8180811C821B82882321F481E034
:105A300090E09C838B838B819C810F900F900F90C3
:105A40000F90CF91DF910895DF93CF930F920F9234
:105A5000CDB7DEB79A838983E981FA8181E08083BB
:105A60000F900F90CF91DF910895DF93CF930F9216
:105A70000F92CDB7DEB79A8389830F900F90CF91A5
:105A8000DF910895DF93CF93CDB7DEB7CF91DF914C
:105A90000895DF93CF930F920F92CDB7DEB79A831D
:105AA000898389819A810E941FE10F900F90CF9185
:105AB000DF910895DF93CF930F920F92CDB7DEB7AA
:105AC0009A83898389819A810E9472E00F900F9056
:105AD000CF91DF910895DF93CF93CDB7DEB7A7E2E3
